:020000042000DA
:1042000000000420D5460004AF460004B546000473
:10421000AD460004B5460004B546000400000000A9
:10422000000000000000000000000000B54600048F
:104230000000000000000000AD460004AD46000490
:10424000CD460004CD460004CD460004CD46000412
:10425000CD460004CD460004CD460004CD46000402
:10426000CD460004CD460004000000000000000020
:10427000000000000000000000000000000000003E
:10428000000000000000000000000000000000002E
:10429000000000000000000000000000000000001E
:1042A000000000000000000000000000000000000E
:1042B00000000000000000000000000000000000FE
:1042C00000000000000000000000000000000000EE
:1042D00000000000000000000000000000000000DE
:1042E00000000000000000000000000000000000CE
:1042F00000000000000000000000000000000000BE
:1043000000000000000000000000000000000000AD
:10431000000000000000000000000000000000009D
:10432000000000000000000000000000000000008D
:10433000000000000000000000000000000000007D
:10434000000000000000000000000000000000006D
:1043500000000000000000000348044B834202D02C
:10436000034B03B118477047302502203025022047
:1043700000000000064B0749C91A891048BF0131E7
:10438000491003D0044B0BB101481847704700BFD8
:1043900030250220302502200000000010B5064C18
:1043A000237843B9FFF7D8FF044B13B10448AFF3A8
:1043B00000800123237010BDA8250220000000000A
:1043C000E461000408B5054B1BB105490548AFF38E
:1043D0000080BDE80840FFF7CDBF00BF000000002F
:1043E000AC250220E4610004A3F5803A704700BFC9
:1043F000174B002B08BF134B9D46FFF7F5FF00211D
:104400008B460F461348144A121A01F015FE0E4B44
:10441000002B00D098470D4B002B00D09847002070
:10442000002104000D000D48002802D00C48AFF315
:10443000008001F009FE2000290000F023FA01F0BD
:10444000E9FD00BF00000800000000008B470004E9
:1044500000000420A82502201028022000000000EF
:104460000000000008B500F007F808BD08B5FFF728
:10447000F9FF08BDFEE7000008B501F005FC01F0FA
:1044800025FA01F005F9002877D0454801F04CFAEB
:104490004449002001F094FA4349012001F090FAC8
:1044A000012001F0ABF900F0D9FE002000F01CFD66
:1044B00000F016FE0621012000F01CFE062102205D
:1044C00000F018FE0021032000F014FE002101205E
:1044D00000F04AFD0021012000F06EFD012001F0F6
:1044E0004BF80221084600F03FFD0021022000F0B9
:1044F00063FD022001F040F80121032000F034FDAB
:104500000121032000F058FD032001F035F80120BF
:1045100000F0DAFC00F0A6FD012000F0C3FD002051
:1045200000F086FD0621002000F0E4FD1F4800F0A9
:10453000C7FE60BB1E4800F071FF60BB002108464B
:1045400000F012FD0021084600F036FD00F024F9CD
:10455000184800F059FA00B101BE174800F054FAAB
:1045600000B101BE154800F04FFA00B101BE144879
:1045700000F04AFA00B101BE08BD01F079F800F080
:104580007BFD00F06FFD012000F08CFD7DE7042035
:10459000FFF770FFCEE70420FFF76CFFCEE700BF08
:1045A00058230220602302206C230220AC60000408
:1045B000400D0300C0600004C4600004C860000433
:1045C000CC60000410B500F01DFA044630B14CB1C7
:1045D000FFF74CFF64B17CB1204610BD00F08EFBAC
:1045E0000446F4E740F6E441002000F0E7FBEFE783
:1045F00000F008F80446EEE700F00EF80446EBE79A
:104600007047000008B50121024801F085F800203C
:1046100008BD00BF7823022010B582B000230093AC
:10462000694601A800F038F8009890B1019B1B681A
:104630008BB1002400E00134009BA34208D9019B08
:1046400053F8240001F0A2FA0028F4D1034800E056
:10465000002002B010BD0020FBE700BF00000206F2
:1046600004290FD008D9082910D108B5012108481C
:1046700001F052F8002008BD0139C9B2012903D95F
:104680000448704700207047002070470148704779
:1046900078230220FF00420000230B60024B0360DE
:1046A00002230B60704700BF80230220FEE70ABE92
:1046B000FEE77047EFF3148010F0020F0CBFEFF32A
:1046C0000880EFF3098000F05BB8704701BEFEE799
:1046D0007047000008B5214B1A6822F000421A60AA
:1046E0001A6842F000421A60002306E01C4A52F8A1
:1046F00023101C4A42F823100133552BF6D9194ACE
:10470000194B9A60BFF35F8F184B83F30A8800F050
:10471000B5F8174A0AE01068516850F8230041F8CC
:104720002300013391688B42F5D30C32114B9A422E
:1047300001D20023F6E7104A08E01168002041F892
:104740002300013351688B42F7D308320B4B9A4256
:1047500001D20023F6E7FFF74BFE00BF0030104008
:10476000004200040022022000ED00E000F00320DF
:10477000E86100040062000408620004186200049A
:1047800008B500F0A3FF08BD704708B5FFF7FCFFB0
:1047900008BD00BF7047000010B5002000F0D0FE3B
:1047A000124C2060124B1860012000F0C9FE114B22
:1047B00018602368104A136003F5742202F23F2246
:1047C0000E49A1FB0212C2F387420D490A7003F29F
:1047D000E7330C4AA2FB03239B090B4A136000201A
:1047E00000F0AEFE094B186010BD00BFC0230220D0
:1047F000C8230220CC230220D023022083DE1B43C7
:10480000D8230220D34D6210D4230220C4230220D7
:1048100008B500220121084600F076FB00220121A4
:10482000022000F071FB01221146032000F06CFB16
:104830004FF0FF320021012000F066FB4FF0FF3205
:104840000021022000F060FB4FF0FF320021032026
:1048500000F05AFB074800F0CBFAFFF79AFF01F08F
:1048600013FA054A136823F001031360FFF794FF5E
:1048700008BD00BFC861000400C0204008B5FFF7B4
:10488000C7FF08BD00B583B0FFF79CFE00B101BEB5
:1048900062B6002300930E220221054800F0AEFA12
:1048A000044B0422C3F88C20642000F0BBFEF7E721
:1048B00080024140000241400230800803D00130B4
:1048C0000238FCD100BF00BF7047EFF3108072B612
:1048D000704780F31088704770B504280DD00D46DE
:1048E000114602463B4C34F810E0441C1D2C07D8FE
:1048F000E4B2384E36F8144003E026250520F0E7F0
:104900007D244FF0010C0CFA02FC334A0CEA02023F
:104910003AB9AE44A3F800E01B88A34258D2002065
:1049200070BDC21E182A32D8DFE802F00D313431D2
:10493000310F25312931313131312B312D313131A7
:104940003131312F2700254A00E0254A1C80002AFA
:10495000E2D00338182836D8DFE800F01E353835A5
:10496000351E2F353135353535351E351E35353546
:10497000353535331E001B4AE8E71B4AE6E71B4A7C
:10498000E4E71B4AE2E71B4AE0E71B4ADEE701BE19
:104990000022DBE7194AD9E70126B542BCD232F83A
:1049A0001500704480B201441980691CB142B3DA29
:1049B00032F811407444A4B2AEE70226EDE71026A7
:1049C000EBE70226E9E701BE0026E6E73226E4E748
:1049D0000B48A5E770610004280B0A0CD0600004A6
:1049E000386100043C6100046C6100044061000413
:1049F000606100046461000468610004D460000424
:104A0000000D020400207047F0B583B00446002773
:104A1000FFF75BFF06460DF10603A2786178207868
:104A2000FFF75AFF054668B9BDF80630C3F3C70261
:104A300003F007031449895C012202FA03F31942C7
:104A400018BF174605B9EFB92DB13046FFF741FF42
:104A5000284603B0F0BD0DF10603A27861782078F6
:104A6000FFF73AFF05460028EFD1BDF80630C3F343
:104A7000C70103F00703044801229A40435C134333
:104A80004354E2E7014DE0E7F8260220010D02045D
:104A90002DE9F0410446884616461F4604E00123EE
:104AA00088F80030E3B1E46840F28975AC4217D071
:104AB0002568002DF7D094F804C036EA0C0CF2D12A
:104AC000637937EA0303EED0A26839463046A84737
:104AD0000028E4D1012F01D00123E1E70023DFE723
:104AE0002046BDE8F08170B504460D46164600E04C
:104AF000E468AC4210D02368002BF9D094F804C0CD
:104B000036EA0C0CF4D1627912F0020FF0D1A268EF
:104B1000022130469847EBE770BD00002DE9F041D7
:104B200082B00D4600F054F9044601238DF8073099
:104B3000022808D0082806D0102804D01A4B1E6876
:104B40001A4B1F6803E0184B1F68184B1E6823465A
:104B50002A460DF107013846FFF79AFF80469DF877
:104B6000073063B930469DF807300BB9012C0ED0E1
:104B70009DF80730B3B1002002B0BDE8F0812346B4
:104B80002A460DF107013046FFF782FFEBE72A4680
:104B900001463046FFF7A7FF2A4641463846FFF751
:104BA000A2FFE5E70248E7E7E0230220DC2302203A
:104BB000FF00420008B508460221FFF7AFFF08BD1D
:104BC00008B50846012902D1044B1B881BB90421F2
:104BD000FFF7A4FF08BD0248FCE700BF082702203A
:104BE000FF00420008B508461021FFF797FF08BDF7
:104BF00008B508460821FFF791FF08BD10B5044627
:104C0000FFF78CFF042C02D0082C17D010BD4FF0FA
:104C1000E0231B6913F0010F04D00E4B1B7813B176
:104C2000012300E000230C4A1370002BEED04FF05C
:104C3000E022136923F001031361E7E7064B1B78B9
:104C4000002BE3D04FF0E022136943F0010313611E
:104C5000DCE700BF0A270220DC27022008B508464F
:104C6000012902D1044B1B881BB90221FFF7C6FFA3
:104C700008BD0248FCE700BF08270220FF004200F1
:104C800008B508460121FFF7B9FF08BD38B50C4645
:104C900020212046FFF742FF0546042C01D028467C
:104CA00038BD002000F04CFC034BA3FB0031890C05
:104CB000012000F02FFDF2E783DE1B4338B5844668
:104CC0008E4615460C4C0FCCCCF80000CCF80410E6
:104CD000CCF80820CCF80C3007CCCCF81000CCF87D
:104CE0001410CCF81820CCF800508CF804E0604682
:104CF00000F04CFF38BD00BFAC61000408B500F007
:104D0000A5FF38B91E4A00211E48FFF7D7FF20B97A
:104D10001D4808BD00F084FFF4E71C4A01211C482F
:104D2000FFF7CCFF08B91848F3E71A4A02211A48DE
:104D3000FFF7C4FF08B91448EBE7184A03211848E5
:104D4000FFF7BCFF08B91048E3E7164A04211648EC
:104D5000FFF7B4FF08B90C48DBE7144A05211448F3
:104D6000FFF7ACFF08B90848D3E7124A06211248FA
:104D7000FFF7A4FF08B10020CBE70348C9E700BF55
:104D8000814C0004BC270220011A02045D4C00047F
:104D900014270220F14B0004682702208D4C0004E8
:104DA00084270220E54B0004A0270220C14B000409
:104DB0004C270220B54B000430270220024600B1E8
:104DC00001BE024B43F82210704700BFD8270220D3
:104DD000431E0F2B09D8DFE803F00A0A080A080867
:104DE000080A080808080808080A01BE01207047D8
:104DF000014B1860704700BFE027022070B59DF896
:104E000010E0072900D901BE32F00F0403D1012AB6
:104E100001D0092A00D101BE012B00D901BE3EF00C
:104E20001F0400D001BE072900D901BE3EF01F04B7
:104E300000D001BE00F13F4C0CF53F0C4FEADC1CEA
:104E40000CF1806C0CF5802C4FEA0C1C032929D83E
:104E5000DCF80040CE001F25B54024EA05040EF022
:104E60001F0E0EFA06FE44EA0E04CCF80040046859
:104E70004FF0010C0CFA01FC24EA0C0C03F00103C6
:104E80008B4043EA0C030360436C89004FF00F0C26
:104E90000CFA01FC23EA0C0302F00F028A401A43C9
:104EA000426470BD0C1FDCF80450E4001F26A640CD
:104EB00025EA06050EF01F0E0EFA04FE45EA0E0561
:104EC000CCF80450D3E70000042800D901BE054AFD
:104ED000136823F4E063000200F4E060034313600E
:104EE000704700BF00002240072800D901BE054AD4
:104EF000D2F8003523F0070300F007000343C2F89F
:104F00000035704700102040030A5FFA80FC10F45F
:104F10007F4F00D001BE10F0FC0F00D001BE02296F
:104F200000D901BE19B101290ED00E487047DBB27D
:104F300003EB43039B0703F1804303EB8C1344F221
:104F400010015A5000207047DBB203EB43039B076C
:104F500003F1804303EB8C1344F214015A500020F8
:104F6000704700BF01004A0003280FD80F290FD84F
:104F7000084A00F5926052F8203023F00F0301F048
:104F80000F010B4342F82030002070470248704761
:104F9000014870470000204001004A00032800D962
:104FA00001BE00F59260034B53F8200000F00F00A3
:104FB000704700BF00002040032810D8032910D8F4
:104FC000094A00F5926052F8203023F030030901BD
:104FD00001F030010B4342F82030002070470348B5
:104FE00070470248704700BF0000204001004A009F
:104FF000032800D901BE00F59260034B53F820004E
:10500000C0F30110704700BF00002040032801D901
:105010000020704700F59460044B53F8203013F4DF
:10502000807F0CBF01200020704700BF000020409F
:1050300028B14FF04042034BC3F8582570474FF05A
:105040000042F8E700102040024B1869C0F38000CE
:10505000704700BF0000224008B500F067FB08BDA4
:1050600000207047034AD2F8483543F00043C2F8A5
:105070004835704700102040074B186810F00100B9
:1050800007D1064AD2F8483523F00043C2F8483524
:1050900070470348704700BF00C020400010204008
:1050A00003004A00064BD3F8483523F0010328B12A
:1050B00001221343024AC2F8483570470022F8E73C
:1050C00000102040014B1868704700BFE8270220FD
:1050D000024BD3F86005C00F704700BF001020409E
:1050E000034AD2F8603543F00043C2F86035704798
:1050F00000102040B1F5897F07D2B1F5887F09D231
:10510000032907D9062905D003E040F21313994279
:1051100000D001BE032818D8FF290DD901F01F01C6
:105120000B4B00F1400243F8221000F5906004227E
:1051300043F820200020704701F0070100F590603F
:10514000034B43F82010002070470248704700BF0F
:105150000000204001004A000246032800D901BE99
:1051600002F59063074951F8230000F00700042876
:1051700000D07047403251F8220000F01F0040F488
:105180008070F6E70000204008B5032800D901BE72
:10519000FFF7E2FF06280DD9B0F58A7F46D2B0F5B9
:1051A000887F11D3A0F5887003283BD8DFE800F092
:1051B00028321E14062805D8DFE800F03608040B54
:1051C00004041B00002008BD0020FCE7FFF77AFF65
:1051D000F9E7FFF741FFF6E7154BD3F82835002B29
:1051E00001DB0020EFE74FF40040ECE7FFF738FF6A
:1051F000E9E7FFF76DFF08B90020E4E70D48E2E7B3
:105200000B4BD3F84835002B01DB0020DBE74FF4D4
:105210000040D8E7FFF718FF08B90020D3E74FF4A4
:105220000040D0E70020CEE70348CCE70020CAE7E3
:1052300000102040006CDC0200127A00024BD3F810
:105240003005C00F704700BF00102040024BD3F85C
:10525000400500F0010070470010204010B5164ACC
:10526000D2F8383523F0405343F00053C2F83835B4
:105270006424114BD3F83835C3F30173022B05D0E6
:1052800024B1012000F0EAF9013CF2E70CB90B4827
:1052900010BD022000F0E2F9074BD3F8302522F0D0
:1052A0000042C3F83025D3F83C2522F00042C3F871
:1052B0003C250020ECE700BF0010204002004A001F
:1052C00010B5044600286DD0FFF7B8FF00286DD157
:1052D0002368B3F5802F00D301BE2368C3F3110305
:1052E000E279002A60D04FF080721343304AC2F84E
:1052F0003035A388B3F5005F00D301BE2389FF2BAF
:1053000000D901BEA388C3F30C032289120402F45E
:105310007F021343264AC2F83435A37A0F2B00D9F3
:1053200001BEE37A0F2B00D901BEA389B3F5005F5C
:1053300000D301BEA37A03F00F03E27A1201D2B2C6
:105340001343A1891B4A02EA01221343A27B1207DD
:1053500002F040521343164AC2F83835A379042BA1
:1053600000D901BE238AB3F5007F00D301BE1049E6
:10537000D1F83C3523F4E063A279120202F4E06232
:105380001343C1F83C35D1F83C3523F0FF7323F4C7
:105390008033208A084A02EA00421343C1F83C35B0
:1053A000002010BD01BE8FE700229EE70348F8E70A
:1053B0000010204000FF1F000000FF0103004A0012
:1053C000034638B31449D1F83025C2F311001860F0
:1053D000C2F30062DA71D1F83425C2F30C00988070
:1053E000C2F307421A81D1F8382502F00F009872F3
:1053F000C2F30310D872C2F30C209881C2F3017279
:105400009A73D1F83C25C2F302219971C2F3084284
:105410001A82704701BED5E70010204038B5054616
:10542000214AD2F83C3543F00043C2F83C350446EB
:1054300003E0012000F012F9013C1B4BD3F840358A
:1054400013F0040F01D1002CF3D1174AD2F83835EC
:1054500023F0405343F00053C2F8383505B15CB136
:10546000114AD2F8303543F00043C2F8303503E03A
:10547000012000F0F3F8013CFFF7E8FE08B9002C2A
:10548000F6D105B15CB1084AD2F8383543F0405343
:10549000C2F838350DB12CB10025284638BDFFF7CC
:1054A000DDFEF7E7014DF8E70010204002004A005A
:1054B00070B586B000230193029303930493059380
:1054C00001A8FFF77DFFFFF7B9FE38B19DF8123054
:1054D000022B01D0012102E0002100E00021019D0A
:1054E000BDF8084020469DF80B3083B1022681B1FB
:1054F00084B10020FFF748FEA0FB0501A4FB0623B2
:105500005408001941F1000100F0F6FB02E0012609
:10551000EDE7002006B070BD38B50446032800D979
:1055200001BE2046FFF730FE05460CB1284638BDC7
:10553000FFF784FE0028F9D0FFF7BAFF0546F5E72C
:10554000F8B50546FFF754FD0646012303FA00F7B8
:105550002846FFF723FDFFF7DFFF04462846FFF745
:1055600055FD20B904EB570424FA06F0F8BD0148B4
:10557000FCE700BF00127A0010B50446FFF7E0FF19
:10558000032C19D8032C03D8DFE804F0080804061C
:10559000002304E00A4B02E00A4B00E00A4B83427E
:1055A0000CD30A4A04F5926452F8243043F00043C5
:1055B00042F82430002010BD0548FCE70548FAE712
:1055C000006CDC0200366E0100D8B80500002040F7
:1055D00001004A0003004A000139072905D8DFE825
:1055E00001F0060E0417040404120B4870470B4B1D
:1055F0001B787BB90A4B01221A70002070470020EB
:10560000074B18707047064B00221A70024870470B
:105610000020704700487047FF004200E427022046
:10562000EC27022038B504460B4B1B684FF0FF35C2
:10563000B5FBF3F506E0084B186805FB00F0FFF733
:105640003BF9641BAC42F6D8034B186804FB00F02E
:10565000FFF732F938BD00BFD423022008B5034B51
:105660001B7803FB00F0FFF727F908BDD8230220C1
:10567000054B4FF000429A649B6C002B01DB00202D
:1056800070470248704700BF0000224003004600F8
:105690000C4BD3F800089B6813F0FF0F01D040F0CB
:1056A0000040084BD3F804389BB20BB140F4803073
:1056B000044BD3F8043813F4803F01D040F4003099
:1056C000704700BF00102040FEE7000008B50268E8
:1056D0000E4B1A6242685A6282689A62C268DA6243
:1056E00002691A6342695A6382699A63C269DA631A
:1056F000074A916A1964D16A5964516A9964516B75
:10570000D964926B1A65FFF7DFFF08BD54250220AC
:1057100000ED00E07047000021B101231843024B67
:10572000186170470023F9E70010224000487047D5
:1057300000366E0108B518B100F0B4FA002008BDBB
:1057400001BEF9E708B510B100F0CDFA08BD01BE01
:10575000FAE7000008B538B10A2900D901BEC9B27C
:1057600000F0AEFA014808BD01BEF5E703004200B3
:10577000124BD3F81011D3F80021022804D00628C8
:1057800002D00A2800D001BE062805D00A2807D07A
:1057900002280ED001BE06E0122245F2120102E0FC
:1057A000132244F21301054BC3F81011C3F8002172
:1057B0007047122246F21201F5E700BF00201C409C
:1057C0000D4BD3F8102102F44062D3F8101121F4EC
:1057D0004061C3F81011D3F81011D04300F44060B9
:1057E0000143C3F81011D3F8100100F44060801A8F
:1057F00018BF0120704700BF00201C4008B50528D5
:1058000013D006281FD0012801D0164808BD052155
:105810001548FFF79FFF05211448FFF79BFF022162
:105820001348FFF797FF0020F0E702210E48FFF72B
:1058300091FF00210D48FFF78DFF02210C48FFF773
:1058400089FF0020E2E700210748FFF783FF0021DE
:105850000648FFF77FFF00210548FFF77BFF002088
:10586000D4E700BF0100420000102140005010406A
:105870000000104008B50848FFF764FF022806D072
:10588000052806D008B1002008BD0620FCE7052049
:10589000FAE70120F8E700BF0010214008B50A4BE5
:1058A000D3F80028D3F8043802B13BB9FFF7E2FF80
:1058B000052805D0062805D1012008BD0220FCE7F7
:1058C0000020FAE70220F8E70010204008B5FFF7B3
:1058D000E5FF00B908BD0648FFF72CFF0548FFF7B4
:1058E00029FF0548FFF726FF0120FFF787FFF1E7B3
:1058F00000102140005010400000104010B56424FA
:10590000074BD3F80C3C002B05DB24B1013C0120F4
:10591000FFF788FEF4E70CB1002010BD0148FCE75A
:10592000001020400200420008B503781F2B00D968
:1059300001BE4378012B02D0112B00D001BE437968
:10594000012B00D901BE037803F01F034278120235
:1059500002F4F8521343104AC2F8003C8378ABB10A
:105960004FF08053C2789AB14FF0804213430279CE
:1059700082B14FF000421343074AC2F8043C437916
:10598000DB07C2F8083CFFF7B9FF08BD0023E9E7D1
:105990000022EBE70022EEE700102040012800D9AA
:1059A00001BE28B9054BD3F8100CC0F30350704763
:1059B000024BD3F8140CC0F3034070470010204092
:1059C00010B50C46012800D901BE23781F2B00D941
:1059D00001BE6378012B02D0112B00D001BE2379C8
:1059E000022B04D0062B02D00A2B00D001BE664A3F
:1059F000D2F8043C43F00053C2F8043C28B32378A7
:105A000003F01F036278120202F4F8521343227962
:105A1000120402F470221343E279002A00F0B080ED
:105A20004FF080421343227A002A00F0AB804FF0FF
:105A300000421343544AC2F8143C534AD2F8043C7F
:105A400023F00053C2F8043C10BDFFF7A7FF6379B1
:105A5000022B04D0062B02D00A2B00D001BEA37863
:105A60001F2B00D901BEE378012B02D0112B00D0EF
:105A700001BE237983422DD383425BD9227802F081
:105A80001F026178490101F478710A431B0503F490
:105A900070031343A278920202F4F8421343E278AF
:105AA000D20302F4782213436279920602F0705214
:105AB0001343A279002A3BD04FF000421343324AED
:105AC000C2F8103CFFF77CFE0028B6D02079FFF723
:105AD0004FFEB2E7FFF774FE20BB237803F01F03ED
:105AE0006278520102F4787213432279120502F4AB
:105AF00070021343A278920202F4F8421343E27850
:105B0000D20302F4782213436279920602F07052B3
:105B10001343A27952B14FF0004213431A4AC2F81C
:105B2000103C8AE72079FFF723FED6E70022F4E74E
:105B30000022C3E7227802F01F026178490101F4D4
:105B400078710A431B0503F470031343A278920291
:105B500002F4F8421343E278D20302F478221343AA
:105B60006279920602F070521343A27932B14FF07B
:105B700000421343044AC2F8103C5EE70022F8E7F3
:105B800000224FE7002254E70010204000283CD0BC
:105B90000246C368002B3AD00368002B39D090F836
:105BA00004C01E4B53F82C1039B310B40C4600E05F
:105BB00019464B693BB1914205D0187E117E88424F
:105BC000F6D81C46F4E7914225D0236943B16369B6
:105BD0005361146103B11A616261012010BC704706
:105BE000117E237E9942F2D2546100231361226117
:105BF0000A4B43F82C200120F0E7084B43F82C0017
:105C0000002343610361012070470020704700209A
:105C10007047002070470020E0E700BFF027022017
:105C200008B5FEF752FE074B9A6807490A4042F44E
:105C300068529A609A680A409A609B68FEF749FE2B
:105C400008BD00BF00102040FF00FC0F024B986809
:105C5000C0F34040704700BF0010204008B5FEF779
:105C600034FE044A536843F080435360FEF731FE2C
:105C700008BD00BF00102040024B5868C0F3807080
:105C8000704700BF00102040054A136823F04043CE
:105C900043F080431360136843F000431360704780
:105CA00000C02040034630B100221A643F221A632C
:105CB000024A9A63704701BEF6E700BFBFFF07FFC5
:105CC000034670B10A2900D901BE1A6822F00F02FA
:105CD000114341F4807119609A6812F4807FFBD0FF
:105CE000704701BEEEE7034618B1186800F00F00D8
:105CF000704701BEF9E7000053B94AB9002908BF4F
:105D000000281CBF4FF0FF314FF0FF3000F080B98A
:105D1000ADF1080C6DE904CE00F006F8DDF804E002
:105D2000DDE9022304B070472DE9F04F099E0D46CE
:105D300004460F46002B46D18A4294465ED9B2FAF9
:105D400082F343B102FA03FCC3F120029F409C405E
:105D500020FA02F217434FEA1C4E1FFA8CF5220C70
:105D6000B7FBFEF10EFB117701FB05F042EA07429B
:105D7000904208D91CEB020201F1FF3702D2904297
:105D800000F235813946121AA4B2B2FBFEF00EFBC6
:105D9000102200FB05F544EA0244A54208D91CEB99
:105DA000040400F1FF3202D2A54200F21A8110462B
:105DB00040EA0140641B00211EB1DC400023C6E91B
:105DC0000043BDE8F08F8B4208D9002E00F0FD8023
:105DD0000021C6E900050846BDE8F08FB3FA83F15B
:105DE00000294CD1AB42C0F0F380824240F2F080F7
:105DF0000846002EE5D0C6E90047E2E702B9FFDE1B
:105E0000B2FA82F3002B40F0A0808A1A4FEA1C4EAF
:105E10001FFA8CF70121B2FBFEF50EFB1520220CB8
:105E200042EA004207FB05F090420FD91CEB020248
:105E300005F1FF382CBF4FF001094FF000099042E7
:105E400003D9B9F1000F00F0CF804546121AA4B271
:105E5000B2FBFEF00EFB102200FB07F744EA0244FF
:105E6000A74208D91CEB040400F1FF3202D2A7427A
:105E700000F2B4801046E41B40EA05409CE7C1F103
:105E800020048B4005FA01FC00FA01FE22FA04F717
:105E9000E5408A401F4320FA04F34FEA174843EADB
:105EA0000C031FFA87FC4FEA1349B5FBF8F008FB17
:105EB000105549EA054500FB0CF9A9450ED97D1995
:105EC00000F1FF3A2CBF4FF0010B4FF0000BA9453A
:105ED00003D9BBF1000F00F08D805046A5EB0905FA
:105EE0001FFA83F9B5FBF8F308FB135503FB0CFC11
:105EF00049EA0545AC4506D97D1903F1FF3801D2C1
:105F0000AC457DD8434643EA0040A5EB0C05A0FB19
:105F100002984545CC46434602D306D1CE4504D22D
:105F20000138B9EB020C68EB0703002E6ED0BEEB14
:105F30000C0265EB030522FA01F305FA04F4CD40E7
:105F400000211C43C6E900453BE702FA03FCC3F10C
:105F5000200299409C40D5404FEA1C4E20FA02F2A4
:105F60001FFA8CF7B5FBFEF00A430EFB1055110C1F
:105F700041EA054100FB07F58D420ED91CEB0101FA
:105F800000F1FF382CBF4FF001094FF000098D429E
:105F900002D9B9F1000F30D04046491B92B2B1FB93
:105FA000FEF50EFB151142EA014205FB07F1914295
:105FB00007D91CEB020205F1FF3801D2914222D829
:105FC0004546521A45EA004125E731463046F8E693
:105FD000841A65EB0302012017460AE7644402387D
:105FE00049E764440238E3E6023D62442EE70239A1
:105FF0006244C8E602383D4470E702386144CCE7A9
:10600000023B3D447FE7023D6244DAE73146D8E691
:10601000704700BF08B5064B044613B10021AFF32B
:106020000080044B1B6803B19847204600F030F80D
:10603000000000000C28022002440346934200D1D5
:10604000704703F8011BF9E770B50D4D00260D4CA4
:10605000641BA410A64209D10B4D00260B4C00F086
:1060600019F8641BA410A64205D170BD55F8043B75
:1060700001369847EEE755F8043B01369847F2E7BA
:10608000E4230220E4230220E4230220E823022068
:10609000FEE700BFF8B500BFF8BC08BC9E467047DD
:1060A000F8B500BFF8BC08BC9E467047F40100007C
:1060B0007D0004010A0009043000030040010000D3
:1060C00004000000040100000402000004030000BA
:1060D00000000000000000000000000001000600B9
:1060E0000A000C000D000D000D000D000D000D004C
:1060F0000D000F000F000F000F000F000F000F002A
:106100000F000F000F000F000F000F000F00100016
:1061100011001200130014001500160017001800DB
:1061200019001D001E001E001E001F00200021007F
:1061300025002600270028000000000000001000B5
:10614000000008001000180020002800300038006F
:10615000400048005000580060006800700078005F
:10616000000000000000000000000200000000002D
:106170000000000001000100020002002A002A00C5
:106180002A002A003A003A006A006A006A006B009E
:106190006B006C006C006D006D006E006F00700095
:1061A0007300730073007C007D007D000000000020
:1061B00000000000000000000C270220000000008A
:1061C000000000000A0000000000000000000000C5
:1061D00000000000000000000000000000000000BF
:0861E0000000000000000000B7
:1061E800186200045823022076000000F0630020A3
:0861F800000800200000000077
:08620000E8E1FF7F010000004E
:10620800A82502209A0000000008002000000000D5
:106218001411000000000000141107010A02010017
:1062280000000000141100000A0000010100000035
:1062380000000420ED230220A4230220882302204A
:10624800614600040500000000000000C42502208B
:10625800000000000000000000000000D955000404
:106268000100000000000000CC2502200000000012
:1062780000000000FF000000006CDC02006CDC0283
:10628800006CDC02006CDC02006CDC0280BB0000ED
:10629800300000008907000089070000C54300049A
:1062A8009D43000408B500F005F800F095F800F0EB
:1062B80087F808BD08B5144A144B9A6000220121DA
:1062C800084600F085F800220121022000F080F83D
:1062D8004FF0FF320021012000F07AF84FF0FF3232
:1062E8000021022000F074F84FF0FF320021032053
:1062F80000F06EF800F068F818B9054B01221A7022
:1063080008BD00F06DF8F8E70022022000ED00E07B
:10631800ED270220002307E00F4A52F823100F4A06
:1063280042F823100133DBB2022BF5D900230AE02F
:1063380003F1604202F5614292F80013084A42F8FC
:1063480023100133DBB2442BF2D94FF0E023D3F80A
:10635800202D044B1A60704700E100E0E826022077
:10636800D4250220F4260220002307E00F4A52F821
:1063780023100F4A42F823100133DBB2022BF5D960
:1063880000230AE00B4A12F8231003F1604202F5D9
:10639800614282F800130133DBB2442BF2D9064B79
:1063A8001A684FF0E023C3F8202D7047E826022032
:1063B80000E100E0D4250220F426022000000000BD
:1063C8005FF800F0014600045FF800F0795C000413
:1063D8005FF800F0094F00045FF800F06D44000416
:0863E8005FF800F05D5C0004A9
:04000005040046D5D8
:00000001FF
